:020000040804EE
:10E20800000000000000000000C0005000000000F6
:10E218000000000000000000000000308000003016
:10E2280000010030D0180030000000000404000095
:10E238000000000000000000B51D0008604B001041
:10E24800113A000838510408A23EFB020000000001
:10E2580000000000000000000000000000000000B6
:10E2680000000000000000000000000000000000A6
:10E278000000000000000000000000000000000096
:10E288000000000000000000000000000000000086
:10E298000000000000000000000000000000000076
:10E2A8000000000000000000000000000000000066
:10E2B8000000000000000000000000000000000056
:10E2C8000000000000000000000000000000000046
:10E2D8000000000000000000000000000000000036
:10E2E8000000000000000000000082004000000163
:10E2F8000300400000018100080000010000000048
:10E308000000000000000000000004509D8D00087F
:10E31800C98F00080600000000000000000000008F
:10E3280000000000070000000000000007000000D7
:10E33800980000000000010002000000CC5704080B
:10E34800FC5704082C5804085C5804088C58040826
:10E35800BC580408EC5804081C5904084C59040813
:10E368007C590408AC590408DC5904080C5A040800
:10E378003C5A04086C5A04089C5A0408CC5A0408ED
:10E38800FC5A04082C5B04085C5B04088C5B0408DA
:10E39800BC5B0408EC5B04081C5C04084C5C0408C7
:10E3A8007C5C0408AC5C0408DC5C04080C5D0408B4
:10E3B8003C5D04086C5D04089C5D0408CC5D0408A1
:10E3C800FC5D04082C5E04085C5E04088C5E04088E
:10E3D800BC5E0408EC5E04081C5F04084C5F04087B
:10E3E8007C5F0408AC5F0408DC5F04080C60040868
:10E3F8003C6004086C6004089C600408CC60040855
:10E40800FC6004082C6104085C6104088C61040841
:10E41800BC610408EC6104081C6204084C6204082E
:10E428007C620408AC620408DC6204080C6304081B
:10E438003C6304086C6304089C630408CC63040808
:10E44800FC6304082C6404085C6404088C640408F5
:10E45800BC640408EC6404081C650408010000009E
:10E46800187A0408407A04083484040838840408B4
:10E478003C84040844840408488404084C84040840
:10E488005084040854840408588404085C840408EC
:10E4980060840408648404084C84040868840408BC
:10E4A8006C8404087C8404088C840408A084040810
:10E4B800B0840408C0840408D0840408E0840408F4
:10E4C800F0840408008504081085040820850408E1
:10E4D800C0840408308504080C84040828840408CF
:10E4E800E483040821300008AD0802080000000099
:10E4F80000000000DC05001044060010AC06001007
:10E508000000000000000000000000000000000003
:10E5180000000000000000000000000000000000F3
:10E5280000000000000000000000000000000000E3
:10E5380000000000000000000000000000000000D3
:10E5480000000000000000000000000000000000C3
:10E5580000000000000000000000000000000000B3
:10E5680000000000000000000000000000000000A3
:10E578000000000000000000000000000000000093
:10E588000000000000000000000000000000000083
:10E598000000000000000000010000000000000072
:10E5A8000E33CDAB34126DE6ECDE05000B00000037
:10E5B8000000000000000000000000000000000053
:10E5C8000000000000000000000000000000000043
:10E5D8000000000000000000000000000000000033
:10E5E8000000000000000000000000000000000023
:10E918000000000000000000F002001043000000AA
:10E9280000000000000000000000000000000000DF
:10E93800000000000000000000000000430000008C
:10E9480000000000000000000000000000000000BF
:10E95800000000000000000000000000430000006C
:10E96800000000000000000000000000000000009F
:10E97800000000000000000000000000430000004C
:10E98800000000000000000000000000000000007F
:10E99800000000000000000000000000430000002C
:10E9A800000000000000000000000000000000005F
:10E9B800000000000000000000000000430000000C
:10E9C800000000000000000000000000000000003F
:10E9D80000000000000000000000000043000000EC
:10E9E800000000000000000000000000000000001F
:10E9F80000000000000000000000000065CB0308D4
:10EA0800D13E030800000000749F04087CA004089D
:10EA180088780408887804088878040888780408BE
:10EA280088780408887804088878040888780408AE
:10EA380088780408FFFFFFFFFFFFFFFFFFFFFFFFCE
:10EA4800FFFF000001004153434949000000000056
:10EA580000000000000000000000000000000000AE
:10EA68000000000000004153434949000000000035
:10EA7800000000000000000000000000000000008E
:10EA8800000000000000000000000000000000007E
:10EA980088080010880800109008001090080010DE
:10EAA8009808001098080010A0080010A00800108E
:10EAB800A8080010A8080010B0080010B00800103E
:10EAC800B8080010B8080010C0080010C0080010EE
:10EAD800C8080010C8080010D0080010D00800109E
:10EAE800D8080010D8080010E0080010E00800104E
:10EAF800E8080010E8080010F0080010F0080010FE
:10EB0800F8080010F80800100009001000090010AB
:10EB18000809001008090010100900101009001059
:10EB28001809001018090010200900102009001009
:10EB380028090010280900103009001030090010B9
:10EB48003809001038090010400900104009001069
:10EB58004809001048090010500900105009001019
:10EB680058090010580900106009001060090010C9
:10EB78006809001068090010700900107009001079
:10EB88007809001078090010800900108009001029
:10EB980088090010880900109009001090090010D9
:10EBA8009809001098090010A0090010A009001089
:10EBB800A8090010A8090010B0090010B009001039
:10EBC800B8090010B8090010C0090010C0090010E9
:10EBD800C8090010C8090010D0090010D009001099
:10EBE800D8090010D8090010E0090010E009001049
:10EBF800E8090010E8090010F0090010F0090010F9
:10EC0800F8090010F8090010000A0010000A0010A6
:10EC1800080A0010080A0010100A0010100A001054
:10EC2800180A0010180A0010200A0010200A001004
:10EC3800280A0010280A0010300A0010300A0010B4
:10EC4800380A0010380A0010400A0010400A001064
:10EC5800480A0010480A0010500A0010500A001014
:10EC6800580A0010580A0010600A0010600A0010C4
:10EC7800680A0010680A0010700A0010700A001074
:10EC8800780A0010780A0010800A0010800A001024
:10EC9800880A0010880A0010900A0010900A0010D4
:10ECA800980A0010980A0010A00A0010A00A001084
:10ECB800A80A0010A80A0010B00A0010B00A001034
:10ECC800B80A0010B80A0010C00A0010C00A0010E4
:10ECD800C80A0010C80A0010D00A0010D00A001094
:10ECE800D80A0010D80A0010E00A0010E00A001044
:10ECF800E80A0010E80A0010F00A0010F00A0010F4
:10ED0800F80A0010F80A0010000B0010000B0010A1
:10ED1800080B0010080B0010100B0010100B00104F
:10ED2800180B0010180B0010200B0010200B0010FF
:10ED3800280B0010280B0010300B0010300B0010AF
:10ED4800380B0010380B0010400B0010400B00105F
:10ED5800480B0010480B0010500B0010500B00100F
:10ED6800580B0010580B0010600B0010600B0010BF
:10ED7800680B0010680B0010700B0010700B00106F
:10ED8800780B0010780B0010800B0010800B00101F
:10ED9800880B0010880B0010900B0010900B0010CF
:10EDA800980B0010980B0010A00B0010A00B00107F
:10EDB800A80B0010A80B0010B00B0010B00B00102F
:10EDC800B80B0010B80B0010C00B0010C00B0010DF
:10EDD800C80B0010C80B0010D00B0010D00B00108F
:10EDE800D80B0010D80B0010E00B0010E00B00103F
:10EDF800E80B0010E80B0010F00B0010F00B0010EF
:10EE0800F80B0010F80B0010000C0010000C00109C
:10EE1800080C0010080C0010100C0010100C00104A
:10EE2800180C0010180C0010200C0010200C0010FA
:10EE3800280C0010280C0010300C0010300C0010AA
:10EE4800380C0010380C0010400C0010400C00105A
:10EE5800480C0010480C0010500C0010500C00100A
:10EE6800580C0010580C0010600C0010600C0010BA
:10EE7800680C0010680C0010700C0010700C00106A
:10EE8800780C0010780C0010800C0010800C00101A
:10EE980000000200FFFFFFFF3484040834840408E4
:10EEA80001000000000000004A000000000000000F
:10EEB800000000000000000000000000000000004A
:10EEC800000000004A0000000000000000000000F0
:10EED800000000000000000000000000000000002A
:04EEE8006C35001075
:020000040C00EE
:1000000000000110097C0008817C0008817C000848
:10001000817C0008817C0008817C000800000000D1
:100020000000000000000000000000003D3A000851
:10003000817C000800000000D33A0008E33A000881
:10004000817C0008817C0008817C0008817C00089C
:10005000817C0008817C0008817C0008817C00088C
:10006000817C00080000000000000000000000008B
:10007000817C000800000000817C0008817C000871
:10008000817C0008817C0008817C0008817C00085C
:10009000817C0008817C0008817C0008817C00084C
:1000A000817C0008817C0008817C0008817C00083C
:1000B000817C0008817C0008817C0008817C00082C
:1000C000817C0008817C0008817C0008817C00081C
:1000D000817C0008817C0008817C0008817C00080C
:1000E000817C0008817C0008817C0008817C0008FC
:1000F000817C0008817C0008817C0008817C0008EC
:10010000817C0008817C0008817C0008817C0008DB
:10011000817C0008817C0008817C0008817C0008CB
:10012000DDA70008817C0008817C0008817C000834
:10013000817C0008817C0008817C0008817C0008AB
:10014000817C0008817C0008817C0008817C00089B
:10015000817C0008817C0008817C0008817C00088B
:10016000000000000000000000000000000000008F
:10017000817C0008817C0008817C0008817C00086B
:10018000817C0008817C0008817C0008817C00085B
:10019000817C0008817C0008817C0008817C00084B
:1001A000817C0008817C0008817C0008817C00083B
:1001B000817C0008817C0008817C0008817C00082B
:1001C000817C0008817C0008817C0008817C00081B
:1001D000817C0008817C0008817C00080000000010
:1001E000817C0008817C0008817C00085D92000809
:1001F0000D15000800000000817C000800000000D0
:1002000010B5054C237833B9044B13B10448AFF350
:1002100000800123237010BDE80C001000000000D6
:1002200060D00408084B10B51BB108490848AFF36B
:1002300000800848036803B910BD074B002BFBD0B2
:10024000BDE81040184700BF00000000EC0C001093
:1002500060D00408E40C00100000000082B001909F
:100260000091009B184602B0704700BF00B587B0F0
:100270000590049103920293059800F095FC104AB2
:10028000059B1A60059B04330021184600F092FC80
:10029000059B40330021184603F012F9059B5433A7
:1002A000184603F07BF8089B0093029B039A04997D
:1002B000059807F0F3FA059B184607B05DF804FBB4
:1002C0003053040800B583B001900B46ADF80230FE
:1002D000019B1A460023136053609360D36013613F
:1002E000019BBDF902201146184601F06FF9019BF0
:1002F000184603B05DF804FB00B583B00190019B84
:10030000184609F005F90346184603B05DF804FBEA
:1003100000B583B001900198FFF7EEFF0346184641
:1003200003B05DF804FB00BF00B583B001900B463D
:10033000ADF80230019B002283F8282002F0B2FAC7
:10034000019BBDF902201146184609F0C9FA02F0D6
:10035000F5FA019B184603B05DF804FB00B583B0C5
:10036000019002F09FFA019800F044F802F0E6FADA
:10037000019B184603B05DF804FB00BF00B583B0D5
:100380000190009102F08EFA019800F01DF8019B97
:100390000099184609F0A0FB02F0D0FA00BF03B0A4
:1003A0005DF804FB00B583B00190009102F07AFA89
:1003B000019B0099184609F009FC02F0BFFA00BF42
:1003C00003B05DF804FB00BF00B583B00190019B52
:1003D00093F8283083F00103DBB2002B05D001F045
:1003E000EBF9019B012283F8282000BF03B05DF8E0
:1003F00004FB00BF00B583B00190019B93F8283047
:10040000002B05D001F0DAF9019B002283F82820A7
:1004100000BF03B05DF804FB00B583B00190019B01
:10042000184600F0E5FE0346002B14BF012300230D
:10043000DBB2184603B05DF804FB00BF08B5054BFE
:100440001B6819460448FFF799FF0A2007F04EFB86
:10045000F5E700BF100E0010080D001008B5054BA1
:100460001B6819460448FFF789FF0A2007F03EFB86
:10047000F5E700BF140E0010380D0010000000005A
:1004800010B54748FFF744FF0346002B0CBF01237C
:100490000023DBB2002B39D0424BD3ED007AB7EE0C
:1004A000007AF4EEC77AF1EE10FA12D83D4B1B68D1
:1004B000184642F0C1FB38A3D3E9002342F05EFAAC
:1004C00003460C461846214642F002FF0246354BD1
:1004D0001A60354BD3ED007AB7EE007AF4EEC77AA6
:1004E000F1EE10FA12D8304B1B68184642F0A4FB0C
:1004F00029A3D3E9002342F041FA03460C461846EB
:10050000214642F0E5FE0246274B1A602748FFF7D6
:10051000FFFE0346002B0CBF01230023DBB2002BA0
:1005200035D0204BD3ED007AF5EEC07AF1EE10FA1B
:1005300012DB1C4B1B68184642F07EFB16A3D3E966
:10054000002342F019FA03460C461846214642F0B1
:10055000BFFE0246134B1A60134BD3ED007AF5EE43
:10056000C07AF1EE10FA12DB0F4B1B68184642F00E
:1005700063FB09A3D3E9002342F0FEF903460C46CE
:100580001846214642F0A4FE0246074B1A6064203A
:1005900007F0ACFA75E700BF7B14AE47E17A843F01
:1005A000680D0010100E0010140E00107C0D0010CD
:1005B00010B5A4B000232293002321934FF41651C9
:1005C0008E4800F0F9FD8E498E4802F013F88E49EE
:1005D0008C4802F00FF88D498A4802F00BF88C49DC
:1005E000884802F007F88B49864802F003F8102289
:1005F00010AB0021184633F003FE10220AAB002195
:10060000184633F0FDFD102206AB0021184633F0EA
:10061000F7FD102202AB0021184633F0F1FD002354
:1006200022937648FFF7F8FE0346002BDFD075488B
:1006300001F026FF03468DF88F309DF88F30232B75
:10064000D5D19DF88F30242B18D0229B102B15D09C
:100650006A48FFF7E1FE0346002BF2D0694801F03B
:100660000FFF03468DF88F3010AA229B13449DF88C
:100670008F201A70229B01332293E2E700238DF82A
:10068000503006215F4801F0D9FE10AB1A4662498E
:100690005C4801F0AFFF002321930EAA10AB5F4925
:1006A000184636F0A5FD2090209B002B19D0219BE9
:1006B000002B01D1209B1F93219B012B01D1209B5B
:1006C0001E93219B022B01D1209B1D930EAB1A463A
:1006D0005249002036F08CFD2090219B013321935C
:1006E000E2E710220AAB1F99184633F08BFC102268
:1006F00006AB1E99184633F085FC102202AB1D99FB
:10070000184633F07FFC02AB184635F0B9FC0346BF
:10071000013B24AA1344002203F8882C0AAB1A4692
:100720003F49384801F066FF06AB1A463D49354857
:1007300001F060FF02AB1A463B49324801F05AFF14
:10074000102206AB3949184635F008FD0346002B48
:100750000CBF01230023DBB2002B75D00FAA02AB24
:100760001146184636F0F0FC06EE900A9FED307AFE
:10077000C6EE877A2F4BC3ED007A2E4BD3ED007A6D
:100780009FED2B7A67EE877A17EE900A42F054FAC3
:1007900003460C461A46234627491A4801F02AFF09
:1007A000264B1B68002B0FD1C42002F06FFD0346BF
:1007B0001C460023009300234FF48052182120464A
:1007C000FFF754FD1D4B1C601C4B1C6814AB1C49EF
:1007D000184600F0EFF914AB1946204607F0B2F8BE
:1007E0001C9014AB184600F0FDF91C9B002B00F088
:1007F000D980144802F0E6F8D4E000BF900D001054
:10080000CC450408C40D0010E44504081C46040847
:1008100034460408504604086C4604087046040830
:10082000744604088446040894460408A446040850
:100830000000C842100E0010AC460408000E001064
:100840003D040008C0460408102206AB594918466A
:1008500035F084FC0346002B0CBF01230023DBB2E0
:10086000002B4DD00FAA02AB1146184636F06CFC97
:1008700006EE900A9FED507AC6EE877A4F4BC3ED95
:10088000007A4E4BD3ED007A9FED4B7A67EE877A74
:1008900017EE900A42F0D0F903460C461A4623465A
:1008A0004749484801F0A6FE474B1B68002B0FD173
:1008B000C42002F0EBFC03461C46002300930023F7
:1008C0004FF4805218212046FFF7D0FC3E4B1C60AD
:1008D0003D4B1C6818AB3D49184600F06BF918AB4E
:1008E0001946204607F02EF81C9018AB184600F069
:1008F00079F91C9B002B55D0354802F063F851E084
:10090000102206AB3349184635F028FC0346002B6D
:100910000CBF01230023DBB2002B43D02E4B1B68FE
:10092000002B1DD02C4B1B68184607F0ABF82A4B48
:100930001B68002B08D0284B1B681B6804331B68FE
:10094000254A126810469847234B00221A604FF040
:1009500000012248FFF712FD21491A4801F04AFE22
:10096000194B1B68002B1DD0174B1B68184607F04E
:1009700089F8154B1B68002B08D0134B1B681B68AC
:1009800004331B68104A1268104698470E4B002229
:100990001A604FF000011348FFF7F0FC12490948B4
:1009A00001F028FE1149074801F024FE0A2007F053
:1009B0009DF81CE6DC4604080000C842140E001036
:1009C000E4460408C40D0010040E00105D04000885
:1009D000F846040814470408000E0010080D001023
:1009E00018470408380D00102C4704084047040835
:1009F00010B594B00A215C48FFF7D4FC0A215B488B
:100A0000FFF7D0FC4FF000015748FFF7B7FC4FF05D
:100A100000015648FFF7B2FCC42002F037FC034641
:100A20001C460023009300234FF4805218212046D7
:100A3000FFF71CFC4E4B1C60C42002F027FC034651
:100A40001C460023009300234FF4805218212046B7
:100A5000FFF70CFC474B1C60C42002F017FC034658
:100A60001C460023009300234FF480521821204697
:100A7000FFF7FCFB404B1C60C42002F007FC034660
:100A80001C460023009300234FF480521821204677
:100A9000FFF7ECFB394B1C60354B1C6803AB384946
:100AA000184600F087F803AB1946204606F04AFFC7
:100AB000139003AB184600F095F8139B002B02D05F
:100AC000304801F07FFF2B4B1C6807AB2E491846BE
:100AD00000F070F807AB1946204606F033FF13907C
:100AE00007AB184600F07EF8139B002B02D0274876
:100AF00001F068FF264B4FF000021A601E4B1C6885
:100B00000BAB2449184600F055F80BAB19462046AC
:100B100006F018FF13900BAB184600F063F8139B18
:100B2000002B02D01C4801F04DFF1C4B4FF000027F
:100B30001A60124B1C680FAB1949184600F03AF8BE
:100B40000FAB1946204606F0FDFE13900FAB18467A
:100B500000F048F8139B002B02D0124801F032FF3E
:100B60000023184614B010BD080D0010380D0010F9
:100B70000C0E0010080E0010000E0010040E0010E5
:100B8000B1050008444704088104000860470408D0
:100B9000100E00103D0400087C470408140E0010DD
:100BA0005D0400089847040882B00190019B184634
:100BB00002B0704700B583B001900091009B002BFC
:100BC00005D110220021019833F01AFB04E06B4696
:100BD0001946019800F018F8019B184603B05DF81B
:100BE00004FB00BF00B583B00190019BDB68002BC4
:100BF00004D0019BDB689B6801989847019B1846CD
:100C000003B05DF804FB00BF00B583B00190009114
:100C100010220021019833F0F3FA019B19460420B9
:100C2000FFF71CFB0346002B02D0009A12681A60E3
:100C3000019B034ADA6000BF03B05DF804FB00BF0C
:100C4000B447040800B583B00190019B1B68984726
:100C500003B05DF804FB00BF00B583B001900091C4
:100C6000019B19460420FFF7F9FA0346002B02D036
:100C7000009A12681A6000BF03B05DF804FB00BF61
:100C800082B0019000BF02B0704700BF00B583B0D2
:100C90000190124A019B1A60114A019B5A63114A42
:100CA000019B9A63019B4C33184602F0EDFB0198BF
:100CB00000F08CF8019B3433184601F09BFB019B3C
:100CC000184600F069FB0023002B02D0019802F0C7
:100CD00005FB019B184603B05DF804FB2848040897
:100CE00048480408A4480408A0F13400CEE700BF37
:100CF000A0F13800CAE700BF00B583B001900198A9
:100D0000FFF7C4FF019802F0E9FA019B184603B00F
:100D10005DF804FBA0F13400EEE700BFA0F138005D
:100D2000EAE700BF00B585B003900291039B012B59
:100D300034D1029B4FF6FF7293422FD119480CF029
:100D4000DFFC194A1949174802F0C2F91121184865
:100D5000FFF7EAFA144A1749154802F0B9F91021C9
:100D60001548FFF7E1FA104A1249134802F0B0F9AA
:100D70001E211248FFF7A6FA1F211148FFF7A2FA19
:100D80004FF4165300930023142215210D4800F050
:100D90002DF9054A0C490B4802F09AF900BF05B03D
:100DA0005DF804FB040D0010000000101DD70008C2
:100DB000080D00105D030008380D0010680D0010CC
:100DC0007C0D0010900D00108D0C000882B0019079
:100DD000019B184602B0704708B54FF6FF7101201D
:100DE000FFF7A0FF08BD00BF08B5044B1B684FF01C
:100DF000FF31184604F034FE00BF08BDE83500108E
:100E000008B5034B1B68184604F05EFE00BF08BD22
:100E1000E835001000B583B00190019800F006F8A5
:100E20000346184603B05DF804FB00BF10B582B05E
:100E30000190019B1B68002B18D1FFF7D5FF019B88
:100E40001B68002B10D1019B043319462420FFF7A7
:100E500005FA0446002C04D0204602F09FFA2246F0
:100E600000E02246019B1A60FFF7CAFF019B1A6847
:100E7000019B04339A4204D05D220449044801F0E6
:100E800059FC019B1B68184602B010BDC0470408FE
:100E9000E447040800B583B00190019800F02CF8F5
:100EA00003B05DF804FB00BF82B00190019BDB68DA
:100EB000002B14BF01230023DBB2184602B0704799
:100EC00000B583B001900091019A009B9A420ED028
:100ED0000198FFF787FE019B19461020FFF7BEF926
:100EE0000346002B03D00099184600F01FF8019B21
:100EF000184603B05DF804FB00B583B00190019B78
:100F0000DB68002B05D14FF404720649064801F056
:100F100011FC019BDB681B680198984703B05DF8E2
:100F200004FB00BFF84704081848040800B583B064
:100F300001900091009BDB68002B05D0009BDB68D3
:100F40005B68009901989847009BDA68019BDA601A
:100F5000019B184603B05DF804FB00BF00B585B0E7
:100F6000039002910192039B1B6810331B68019A46
:100F70000299039898470346184605B05DF804FBAC
:100F800000B583B00190019B1B6818331B68019862
:100F900098470346184603B05DF804FB00B583B0DC
:100FA0000190019B1B6828331B68019898470346F2
:100FB000184603B05DF804FB82B001900B468DF833
:100FC00003304FF0FF33184602B0704782B00190F3
:100FD0000B46ADF802301123184602B0704700BF2F
:100FE00082B00190009100BF02B0704700B585B09B
:100FF000039001930B46ADF80A301346ADF8083064
:101000000398BDF90820BDF90A10069B00F06CF8A2
:10101000039B34330199184601F0B0F9039800F0AE
:101020005DF8094A039B1A60084A039B5A63084A01
:10103000039B9A63039B4C33184602F0AFF9039B62
:10104000184605B05DF804FB284804084848040821
:10105000A448040800B583B00190019B184600F035
:1010600071F90346184603B05DF804FBA0F13400A3
:10107000FFF7F0BF00B583B001900091019B00998C
:10108000184600F06DF90346184603B05DF804FBFE
:10109000A0F13400FFF7EEBF00B583B00190019BD3
:1010A0004C334FF0FF31184602F0C4F900BF03B0D3
:1010B0005DF804FBA0F13400FFF7EEBF00B583B08C
:1010C0000190019B4C33184602F0CCF900BF03B0ED
:1010D0005DF804FBA0F13400FFF7F0BF82B001908F
:1010E000019B184602B0704730B58BB00390019356
:1010F0000B46ADF80A301346ADF80830039800F0FF
:1011000099F92B4A039B1A60039B00225A60039BA8
:1011100000229A60039B00221A73039B1033012460
:101120001D46B4F1FF3F06D000212846FFF742FDDF
:101130001035013CF5E7039B019A1A6300230993DC
:101140000222099B9A4216D9099B01331B01039A7B
:10115000D41805AB00211846FFF72CFD05AB194646
:101160002046FFF7ADFE05AB1846FFF73BFD099B98
:1011700001330993E4E7039B0433BDF90820BDF96B
:101180000A10184608F0DEFE039B1A1D039B1B6B1A
:101190001946104608F0E4FF039B0433039A0549FF
:1011A000184608F0EDFF039B18460BB030BD00BF9A
:1011B000B44804080113000800B583B00190009101
:1011C000019B1B681B6801989847019B0433009999
:1011D000184608F0C5FF019B009A1A63019B1B6823
:1011E00004331B680198984700BF03B05DF804FB07
:1011F00000B585B00190019B1B681B68019898475A
:10120000019B0433184609F0BFF80390019B1B684B
:1012100004331B6801989847039B184605B05DF896
:1012200004FB00BF10B588B00390029113468DF8FF
:101230000730039B1B681B680398984701F032FB3B
:101240000298FFF731FE0346002B23D09DF80730AC
:1012500001331B01039A13441846FFF725FE03468A
:1012600083F00103DBB2002B01D000F0A5FA9DF85A
:10127000073001331B01039A134402991846FFF704
:101280001FFE039B04339DF807100122184608F047
:101290008BFF29E09DF8073001331B01039A1344AB
:1012A0001846FFF701FE0346002B01D000F086FA36
:1012B0009DF8073001331B01039AD41804AB0021B9
:1012C0001846FFF777FC04AB19462046FFF7F8FDF8
:1012D00004AB1846FFF786FC039B04339DF8071008
:1012E0000022184608F060FF01F028FB039B1B68F2
:1012F00004331B680398984700BF08B010BD00BFB7
:1013000000B585B001900B468DF80330019B039327
:101310009DF8033001331B01039A13441846FFF76D
:10132000C3FD0346002B08D09DF8033001331B0199
:10133000039A13441846FFF7ADFD00BF05B05DF8F2
:1013400004FB00BF00B583B00190019B0433184635
:1013500008F0FCFF0346184603B05DF804FB00BF2D
:1013600000B583B001900091019B043300991846A9
:1013700008F0FAFF009B184603B05DF804FB00BFBD
:1013800082B0019000BF02B0704700BF82B00190F0
:1013900000BF02B0704700BF10B588B001901D4A71
:1013A000019B1A6000230793079B012B13DC03ABFF
:1013B00000211846FFF7FEFB079BDAB203AB194684
:1013C0000198FFF72FFF03AB1846FFF70BFC079BB5
:1013D00001330793E8E7019B1033002B0CD0019BEE
:1013E000103303F12004019B10339C4204D0103CC5
:1013F0002046FFF7F7FBF6E7019800F021F80023FD
:10140000002B02D0019801F069FF019B184608B03B
:1014100010BD00BFB448040800B583B00190019826
:10142000FFF7BAFF019801F059FF019B184603B07E
:101430005DF804FB82B00190019B184602B0704732
:1014400082B00190019B184602B0704700B583B08E
:101450000190084A019B1A60019800F04BF80023A4
:10146000002B02D0019801F039FF019B184603B010
:101470005DF804FB8C49040800B583B00190019825
:10148000FFF7E4FF019801F029FF019B184603B024
:101490005DF804FB00B583B00190019B1B6810331D
:1014A0001B6801220021019898470346184603B0A3
:1014B0005DF804FB00B583B00190019B1B681033FD
:1014C0001B68002200210198984700BF03B05DF817
:1014D00004FB00BF00B583B00190019800F010F844
:1014E000034A019B1A60019B184603B05DF804FB98
:1014F0008C49040882B00190019B184602B07047E5
:1015000082B00190019B184602B0704708B5402197
:10151000074809F0F7FD074B5B68002B05D0054B2A
:101520005B680221184606F04DF800BF08BD00BFF9
:1015300008000010180E001000B583B001900B4693
:10154000ADF8023013468DF80130BDF9023019466E
:10155000019807F025FFBDF90230B3F1FF3F09D034
:101560000021019807F08AFF9DF801301946019883
:1015700007F06AFF00BF03B05DF804FB00B585B05B
:10158000039001930B46ADF80A3013468DF80930ED
:10159000BDF90A301946039807F002FFBDF90A3079
:1015A000B3F1FF3F0DD00199039807F08DFF0121A2
:1015B000039807F063FF9DF809301946039807F078
:1015C00043FF00BF05B05DF804FB00BF00B583B06A
:1015D00001900B46ADF80230BDF9023000221946E9
:1015E000019800F005F800BF03B05DF804FB00BFF0
:1015F00000B583B001900B46ADF8023013468DF86C
:1016000001309DF80120BDF9023019460198FFF71D
:1016100093FF00BF03B05DF804FB00BF00B583B0CB
:1016200001900B46ADF80230BDF902300022194698
:10163000019800F005F800BF03B05DF804FB00BF9F
:1016400000B585B003900B460192ADF80A30BDF9A4
:101650000A10019B00220398FFF790FF00BF05B01E
:101660005DF804FB00B583B001900091019A009BE6
:101670009A4201D1019B10E0019BB3F1FF3F01D1E0
:10168000009B0AE0009BB3F1FF3F01D1019B04E006
:10169000044801F097F94FF0FF33184603B05DF8A6
:1016A00004FB00BFD848040882B003460091ADF89F
:1016B00006300CE0009BB3F90030BDF906209A42D9
:1016C00002D1009B5B680AE0009B0C330093009BF7
:1016D000B3F90030B3F1FF3FECD14FF0FF331846C0
:1016E00002B0704700B585B003460091ADF80630F2
:1016F0004FF0FF330393BDF90630B3F1FF3F02D142
:101700004FF0FF330EE0BDF9063000991846FFF7A1
:10171000CBFF0390039BB3F1FF3F02D1034801F0DD
:1017200051F9039B184605B05DF804FBEC4804082A
:1017300082B003460091ADF806300CE0009BB3F98F
:101740000030BDF906209A4202D1009B9B680AE056
:10175000009B0C330093009BB3F90030B3F1FF3FC3
:10176000ECD14FF0FF33184602B0704700B585B09A
:1017700003460091ADF806304FF0FF330393BDF9F7
:101780000630B3F1FF3F02D14FF0FF330EE0BDF959
:10179000063000991846FFF7CBFF0390039BB3F187
:1017A000FF3F02D1034801F00DF9039B184605B035
:1017B0005DF804FB0C49040800BF704700BF704788
:1017C0002DE9F04F89B00190019B5B6893F83830A8
:1017D000002B40F0BC80019B1B681B689847019B55
:1017E0001B689B6998470590059B1B680793059BA1
:1017F0001B68002B06D129225749584800F09AFF50
:10180000574B0793059B5B680693059B5B68202BF2
:1018100003D8059B5B68032B06D82F224E494F48FF
:1018200000F088FF20230693069B043B072202FA60
:1018300003F30493049B18464FF0000102460B4645
:101840004FEA432B4BEAD25B4FEA422A52465B46B1
:101850005D0145EAD2655401A41A65EB030524181D
:1018600045EB0105AF0147EA9467A601361B67EB1C
:101870000507331847EB010419462246079B4FF032
:1018800000045B1844EB020413F1FF3044F1FF3114
:10189000079B4FF000041A46234641F069FD0346BA
:1018A0000C46CDE90234019B5B6800221A60019B63
:1018B0005B6800225A60019B5C68019B1B685B6847
:1018C000984703462362019B5A684FF000034FF08C
:1018D0000004C2E90A34019B5B68079A9A60019B85
:1018E0005D684FF001034FF00004069AA2F120005A
:1018F000C2F1200104FA02F903FA00F049EA0009F2
:1019000023FA01F149EA010903FA02F84346013BCF
:10191000EB60019B5B68049A1A61019B5A68DDE9E0
:101920000234C2E90634019B5A684FF000034FF0BD
:101930000004C2E90C34019B5B68012283F8382063
:10194000019800F00FF8019800F0DCF900E000BF0A
:1019500009B0BDE8F08F00BF2C4904084C490408C9
:1019600040420F002DE9F04796B00B900B9B5B684F
:1019700013930B9B1B685B68984712900B9B5B68EB
:101980001A6A129B9A4200F01381139B1A6A129BE7
:101990009A1A139BDB6813404FF00004CDE9103412
:1019A000139A129B1362139B9A68834B9A4204D139
:1019B000DDE91034CDE91434EEE0139B9B68B3F5F8
:1019C000004F76D1DDE910120B46144660020390F9
:1019D000039840EAD35003905B020293DDE902349E
:1019E0004FEA441848EAD3685F01FF1A68EB04081D
:1019F0007F1848EB02084FEA88130593059B43EADA
:101A000097630593BB010493DDE90434DB1B64EBAE
:101A100008045B1844EB0204CDE90E34DDE90E3412
:101A2000DA0B0692069A42EA44420692E30B0793C7
:101A3000DDE90634CDE91434139BD3E90A12DDE95C
:101A40001434E0030190019840EA53400190DB0315
:101A50000093DDE90E34DDE900565D1B64EB0606FC
:101A60002B4634465B1844EB0204139AC2E90A344D
:101A7000139BD3E90A12139B9B684FF00004A24208
:101A800008BF9942C0F08880DDE91434013344F185
:101A90000004CDE91434139BD3E90A12139B9B680D
:101AA0004FF00004CB1A62EB0404139AC2E90A3423
:101AB00072E0DDE910120B461446600209900998A5
:101AC00040EAD35009905B020893DDE908346601CF
:101AD00046EAD3665D01ED1A66EB04066D1846EB27
:101AE00002064FEA861A4AEA956A4FEA8519B9EB67
:101AF00005096AEB060A19EB01034AEB0204CDE97A
:101B00000C34139B9B684FF000041A462346DDE912
:101B10000C0141F02DFC03460C46CDE91434139B17
:101B2000D3E90A12139B9B684FF00004149804FB3E
:101B300000F5159803FB00F02844149DA5FB033421
:101B400020440446DDE90C56EB1A66EB04045B18EE
:101B500044EB0204139AC2E90A34139BD3E90A1234
:101B6000139B9B684FF00004A24208BF994213D315
:101B7000DDE91434013344F10004CDE91434139B3E
:101B8000D3E90A12139B9B684FF00004CB1A62EB57
:101B90000404139AC2E90A34139BD3E90C12DDE959
:101BA00014345B1844EB0204139AC2E90C3400E0CD
:101BB00000BF16B0BDE8F08740420F0030B589B0D5
:101BC0000390CDE90023039B5B680693069BD3E952
:101BD0000C23DDE90001821A61EB0303CDE9042344
:101BE000039B5B681B690793039B5B68D3E9060152
:101BF000DDE90423994208BF904253D3069B9B68BA
:101C00002D4A93420CD1049B0793039B5B681A698E
:101C1000079B9A4246D2039B5B681B69079341E08E
:101C2000069B9B68B3F5004F1AD1DDE90423DD0361
:101C300045EA5245D403204A4FF000032046294686
:101C400041F096FB03460C460793039B5B681A69B9
:101C5000079B9A4226D2039B5B681B69079321E08E
:101C6000069B9B684FF00004049A04FB02F1059A5E
:101C700003FB02F20A440499A1FB0301531819461D
:101C80000D4A4FF0000341F073FB03460C460793E7
:101C9000039B5B681A69079B9A4203D2039B5B68AC
:101CA0001B690793069B1A6A079B1A44069BDB680D
:101CB0001340184609B030BD40420F0084B0039075
:101CC00002910192019A039B9A420BD9029A019BBD
:101CD0009A4203D2029A039B9A4201D201230DE059
:101CE00000230BE0029A039B9A4205D2029A019BC1
:101CF0009A4201D3012300E0002300BF184604B03C
:101D0000704700BF10B58CB00190019B5B680B93CE
:101D10000198FFF727FE019B5B685B68002B38D0BA
:101D2000019B5B68D3E90C34CDE90834019B5B6807
:101D30005B68D3E90034CDE90634DDE90634DDE93A
:101D40000812A24208BF994204D3019B1B685B6939
:101D500098472CE0DDE906230198FFF72FFF059057
:101D6000019B1B681B6905989847019B1B685B6872
:101D7000984704900B9B1B6A059A04991846FFF735
:101D80009DFF0346002B12D0019B1B685B6998479F
:101D90000DE00B9B1A6A0B9B1B691A440B9BDB68BB
:101DA00013400393019B1B681B69039898470CB071
:101DB00010BD00BF10B584B0019000F073FD019B11
:101DC0001B68DB689847019B5B685B68002B27D02A
:101DD0000198FFF7C7FD019B5B685B68D3E900349E
:101DE000019A5268D2E90C12A24208BF994219D353
:101DF000019B5B685B680393019B5B68019A526877
:101E00005268D2685A60019B5B681B68002BDAD06D
:101E1000019B5B681B68039A926810469847D2E75B
:101E200000BF00E000BF0198FFF76CFF00F086FDE7
:101E300000BF04B010BD00BF10B582B00190019882
:101E400000F006F803460C46184602B010BD00BF6D
:101E500010B582B001900198FFF7B2FC00F022FDAE
:101E60000198FFF77FFD00F069FD019B5B68D3E9F6
:101E70000C341846214602B010BD00BF014B184675
:101E8000704700BF6C49040808B5054B1B68002B60
:101E900003D0034B1B680348984700BF08BD00BF31
:101EA000380000106C49040800B585B00390029119
:101EB00013468DF80730039800F0F0F8174A039B9B
:101EC0001A60039B00225A60039B029A9A60039B4C
:101ED0009DF807201A731248FEF79CFF03464FF047
:101EE000FF31184601F0A6FA029B002B07D00D4BDC
:101EF0001A68039B5A600B4A039B136002E0039B22
:101F000000225A600648FEF785FF0346184601F096
:101F1000A9FA039B184605B05DF804FB7C49040848
:101F2000BC0E0010B80E001000B585B00190274A15
:101F3000019B1A602648FEF76DFF03464FF0FF3104
:101F4000184601F077FA019B9B68002B19D0214BB2
:101F50001A68019B9A4204D1019B5B681D4A136079
:101F60000FE01C4B1B680393039B5A68019B9A422A
:101F700003D0039B5B680393F6E7019B5A68039BBE
:101F80005A601348FEF746FF0346184601F06AFA06
:101F9000019800F07BF80346002B0CBF01230023BF
:101FA000DBB2002B04D0019B043B184600F03CFD43
:101FB000019800F079F80023002B02D0019801F07D
:101FC0008DF9019B184605B05DF804FB7C490408B7
:101FD000BC0E0010B80E001000B583B0019001983F
:101FE000FFF7A2FF019801F079F9019B184603B0B1
:101FF0005DF804FB00B585B0019000912148FEF723
:1020000009FF03464FF0FF31184601F013FA1E4B4B
:102010001B680393039B002B28D0039B9B68002B1A
:1020200014D0039B9B68009A0199184634F096F8E7
:102030000346002B0AD1039B9B68184634F020F816
:102040000246009B9A4201D1012300E00023002BAD
:1020500008D00C48FEF7DEFE0346184601F002FAEF
:10206000039B0BE0039B5B680393D3E70548FEF7F4
:10207000D1FE0346184601F0F5F90023184605B0D5
:102080005DF804FBBC0E0010B80E001082B0019089
:10209000019B1B7B184602B0704700BF82B00190C5
:1020A000019B184602B0704782B00190019B184610
:1020B00002B0704782B001900023184602B070470A
:1020C00082B001900023184602B0704700B585B079
:1020D0000190019B1B6810331B68012200210198AD
:1020E00098470390039B002B01DA039B11E0019BAF
:1020F0001B6810331B680222002101989847029048
:10210000019B1B6810331B680022039901989847B4
:10211000029B184605B05DF804FB00BF00B583B014
:10212000019000910099019800F0F0FF03461846D5
:1021300003B05DF804FB00BF00B587B001900091CB
:10214000019B00221A60019B00225A60009B1B78B1
:102150002F2B31D1009B01331B78002B2CD0009BFF
:1021600001330493019B049A1A6000230593019B99
:102170001B681B788DF80F309DF80F302F2B05D181
:10218000019B1B685A1C019B1A600DE09DF80F30E3
:10219000002B08D0059B01330593019B1B685A1C3B
:1021A000019B1A60E3E700BF059B19460498FFF7FF
:1021B00021FF0246019B5A60019B184607B05DF85B
:1021C00004FB00BF82B00190019B1B68184602B05F
:1021D000704700BF00B583B00190019B5B68002B86
:1021E00001D100230AE0019B5B681846FFF74EFF10
:1021F0000346012B0CBF01230023DBB2184603B0BA
:102200005DF804FB00B583B001900198FFF7E2FF91
:102210000346002B09D0019B5B68002B03D0019B78
:102220005B68043B02E0002300E00023184603B093
:102230005DF804FB00B583B00190019B5B68002B47
:1022400001D100230AE0019B5B681846FFF71EFFDF
:102250000346002B0CBF01230023DBB2184603B05A
:102260005DF804FB00B583B001900198FFF7E2FF31
:102270000346002B09D0019B5B68002B03D0019B18
:102280005B68043B02E0002300E00023184603B033
:102290005DF804FB82B00190019B5B68002B14BFCA
:1022A00001230023DBB2184602B0704700B583B0AB
:1022B00001900091019B1846FFF70CF9019B043334
:1022C000002200991846FFF7EFFD019800F0B8F9D9
:1022D000054A019B1A60054A019B5A60019B1846FA
:1022E00003B05DF804FB00BF684A0408B44A040860
:1022F00000B583B001900E4A019B1A600D4A019B04
:102300005A60019800F0A2F9019B04331846FFF7C8
:102310000BFE019B1846FFF799F80023002B02D013
:10232000019800F0DBFF019B184603B05DF804FB49
:10233000684A0408B44A0408A0F10400D8E700BFC2
:1023400000B583B001900198FFF7D2FF019800F02B
:10235000C5FF019B184603B05DF804FBA0F1040023
:10236000EEE700BF82B0019000BF02B0704700BF2F
:1023700082B0019000BF02B0704700BF00B583B0CB
:1023800001900091019B00991846FFF78FFF01987B
:1023900000F062F9134A019B1A60134A019B5A60CC
:1023A000019B00225A61019B10491846FFF7B6FEB7
:1023B0000246019B5A61019B5B69002B05D0019B82
:1023C0005B69184600F096FE07E030F02DF80346F2
:1023D0001B681946064800F0F5FA019B184603B041
:1023E0005DF804FBFC490408584A0408D049040875
:1023F000D449040800B583B001900E4A019B1A60CD
:102400000D4A019B5A60019B5B69184630F054F8F5
:10241000019800F027F9019B1846FFF769FF002398
:10242000002B02D0019800F059FF019B184603B021
:102430005DF804FBFC490408584A040800B585B05F
:1024400001900091019B1B684C331B6801989847D1
:10245000019B5B69184630F0F1F8019B5B691946F6
:10246000009830F087FA0390019B1B6850331B687B
:1024700001989847039B184605B05DF804FB00BF20
:1024800000B585B00190019B1B684C331B68019817
:102490009847019B5B69184630F0D0F8019B5B6957
:1024A000184600F061FE0390019B1B6850331B68C7
:1024B00001989847039B184605B05DF804FB00BFE0
:1024C00082B001900023184602B0704700B587B073
:1024D000039002910192029B0593059A019B13447C
:1024E0000493039B1B684C331B6803989847059A19
:1024F000049B9A4215D0039B1B6844331A68059BC2
:10250000591C05911B781946039890470346B3F16F
:10251000FF3F0CBF01230023DBB2002B00D1E6E715
:1025200000BF039B1B6850331B6803989847059AAC
:10253000029BD31A184607B05DF804FB00B589B0BA
:10254000039002910192029B0793079A019B134407
:102550000693039B1B684C331B6803989847079AA4
:10256000069B9A4212D0039B1B6848331B68039852
:1025700098470590059BB3F1FF3F06D0079B5A1C77
:102580000792059AD2B21A70E9E700BF039B1B6855
:1025900050331B6803989847079A029BD31A184632
:1025A00009B05DF804FB00BF84B003900291019272
:1025B0000023184604B0704782B0019000231846EB
:1025C00002B0704782B0019000BF02B0704700BFF8
:1025D00082B001900023184602B0704782B001908B
:1025E0000023184602B0704782B0019000231846BD
:1025F00002B070470EB400B584B00190019B1B6817
:102600004C331B680198984706AB0293019B5B69AA
:10261000184630F013F8019B5B69029A0599184639
:1026200039F0BAF90390019B1B6850331B6801987D
:102630009847039B184604B05DF804EB03B070475D
:1026400082B00190019B184602B0704782B00190A1
:10265000019B184602B0704782B00190019B18465A
:1026600002B0704782B00190019B184602B07047DB
:1026700000B583B07346019000911A460099019805
:1026800000F006F80346184603B05DF804FB00BFEF
:1026900000B587B00390029101920023059302993F
:1026A000039831F001F90590059B184607B05DF8D5
:1026B00004FB00BF00B587B0039002910192002394
:1026C0000593019A0299039831F048FE0590059B05
:1026D000184607B05DF804FB00B583B0734601905F
:1026E00000911A460099019800F004F800BF03B069
:1026F0005DF804FB00B585B0039002910192029948
:10270000039830F077FA00BF05B05DF804FB00BF16
:1027100000B587B003900291019200230593019ABE
:10272000029903982FF050FE0590059B184607B0BC
:102730005DF804FB00B585B003900291019200F0B2
:10274000B1F8019B029A0399044800F047F800F0A1
:1027500007F800BF05B05DF804FB00BFBC4A0408E1
:1027600000B589B000F09EF801AB11211846FEF7C4
:1027700055FF0023079312E001AB0121184606F034
:10278000A3FE962000F0BEFD01AB0021184606F026
:102790009BFE962000F0B6FD079B01330793079B35
:1027A000032BE9DD0023069314E001AB0121184659
:1027B00006F08AFE4FF4C87000F0A4FD01AB0021C2
:1027C000184606F081FE4FF4C87000F09BFD069B92
:1027D00001330693069B032BE7DDCAE70FB400B570
:1027E00083B005AB01930199049800F007F800BF8E
:1027F00003B05DF804EB04B0704700BF00B5A5B0AE
:102800000190009100F04EF802A8009B019A8021EF
:1028100039F03EF92290229B002B1ADD104B1B68E9
:10282000002B04D1042205210E4807F08BFB002366
:1028300023930AE002AA239B13441B7819460948F4
:1028400007F092FD239B01332393239A229B9A4204
:10285000F0DB00F073F800BF25B05DF804FB00BFAB
:10286000901E00104049001082B0EFF310830193D6
:10287000019B03F00103002B0CBF01230023DBB2FB
:10288000184602B0704700BF82B0EFF30583019392
:10289000019B002B14BF01230023DBB2184602B0BA
:1028A000704700BF00B583B0FFF7DEFF0346002B83
:1028B00014BF01230023DBB283F00103DBB28DF8E8
:1028C00007309DF8073003F001038DF8073072B62A
:1028D000154B1B68002B03D1144A9DF80730137069
:1028E000114B1B68B3F1FF3F04D14322104911483B
:1028F000FFF720FF0C4B1B68002B0BD09DF8073017
:1029000083F00103DBB2002B04D0472208490A48B8
:10291000FFF710FF044B1B680133034A136000BF2D
:1029200003B05DF804FB00BFE40E0010E80E0010D9
:10293000F04A0408144B04083C4B040800B583B06B
:102940001C4B1B68002B30D0FFF78EFF0346002B7B
:1029500014BF01230023DBB283F00103DBB28DF847
:1029600007309DF8073003F001038DF807309DF81C
:10297000073083F00103DBB2002B04D058220E494C
:102980000E48FFF7D7FE0B4B1B68013B094A13604B
:10299000084B1B68002B08D1094B1B78DBB283F076
:1029A0000103DBB2002B00D062B600BF03B05DF8BC
:1029B00004FB00BFE40E0010F04A04083C4B04087E
:1029C000E80E00100FB400B583B00B4B1B78002B42
:1029D0000BD1094B01221A7005AB019301990498A0
:1029E000FFF70CFF012000F07BFB00BF03B05DF898
:1029F00004EB04B0704700BFE90E001008B5044BAB
:102A00001B684FF0FF31184603F02AF800BF08BDDD
:102A1000E835001008B5034B1B68184603F054F85E
:102A200000BF08BDE835001000B585B0019015481D
:102A3000FEF7F0F903464FF0FF31184600F0FAFCBC
:102A4000002303934022039B9A420FD90E4A039B13
:102A500052F82320019B9A4204D10B4A039B002188
:102A600042F82310039B01330393EBE70548FEF77D
:102A7000D1F90346184600F0F5FC00BF05B05DF83B
:102A800004FB00BFF40F0010F40E001008B5084B53
:102A90001B68002B0AD104220521064807F052FAD0
:102AA0004FF41651034807F05BFB00E000BF08BD80
:102AB000901E00104049001000B583B001900091B5
:102AC0002FF0B2FC0246019B5B421360054A009B5B
:102AD000002142F823104FF0FF33184603B05DF891
:102AE00004FB00BFF40E001084B00190019B03931F
:102AF000039B23F400430393039B184604B07047E1
:102B000010B58AB0019000916849019832F06CF8D4
:102B10000346002B0CBF01230023DBB2002B03D0A4
:102B2000FFF7B4FF0023BEE06149019832F05CF882
:102B30000346002B0CBF01230023DBB2002B03D084
:102B4000FFF7A4FF0123AEE05A49019832F04CF898
:102B50000346002B0CBF01230023DBB2002B03D064
:102B6000FFF794FF02239EE05348FEF753F9034614
:102B70004FF0FF31184600F05DFC0023099340221E
:102B8000099B9A420AD94D4A099B52F82330002BDF
:102B900003D0099B01330993F1E700BF4022099B51
:102BA0009A420ED82FF040FC024618231360424888
:102BB000FEF730F90346184600F054FC4FF0FF339F
:102BC00071E03E4A099B4FF0FF3142F823103A482A
:102BD000FEF720F90346184600F044FC0023059355
:102BE000019B1B783A2B09D1019B591C04AB042291
:102BF000184631F007FA049B05934DE002AB0199AA
:102C00001846FFF799FA02AB1846FFF743FB034655
:102C100083F00103DBB2002B06D009996FF012009C
:102C2000FFF74AFF03463EE002AB1846FFF702FB00
:102C30000346002B06D002AB1846FFF713FB0346F2
:102C4000059329E002AB1846FFF7DCFA0890089BD1
:102C5000002B06D109996FF01200FFF72DFF0346F4
:102C600021E00098FFF740FF0790089B1B6808339E
:102C70001C6802AB1846FFF7A5FA024605A9079B98
:102C80000898A0470690069B002B05D00999069846
:102C9000FFF712FF034606E0059A0849099B41F831
:102CA0002320099B033318460AB010BD504B04087B
:102CB000584B0408604B0408F40F0010F40E001089
:102CC00000B585B00190019B022B01DC00232AE0B6
:102CD000019B033B164A52F823300393019B033BAD
:102CE000134A002142F82310039B002B07D12FF039
:102CF0009BFB0246092313604FF0FF3313E0039B55
:102D00001B6814331B68039898470290029B002BA2
:102D100008DA2FF089FB0246029B5B4213604FF0FA
:102D2000FF3300E00023184605B05DF804FB00BF48
:102D3000F40E001000B589B0039002910192009347
:102D4000FFF7A2FD0346002B07D1FFF78DFD0346D9
:102D500083F00103DBB2002B01D0012300E000234C
:102D6000002B02D02448FFF72DFE039B022B1ADC18
:102D7000224B1B68002B01D1FFF788FE002306932E
:102D8000069A019B9A420BD2029A069B13441B7827
:102D900019461B4807F0E8FA069B01330693EFE754
:102DA000019B079322E0039B033B164A52F8233012
:102DB0000593059B002B07D12FF036FB0246092314
:102DC00013604FF0FF3312E0059B1B680C331B6848
:102DD000019A0299059898470790079B002B05DAFE
:102DE0002FF022FB0246079B5B421360079B1846AD
:102DF00009B05DF804FB00BF684B0408901E00108A
:102E000040490010F40E001000B587B00390029105
:102E100001920093FFF738FD0346002B07D1FFF71F
:102E200023FD034683F00103DBB2002B01D0012315
:102E300000E00023002B02D01E48FFF7C3FD039BD8
:102E4000022B0FDC1C4B1B68002B01D1FFF71EFE71
:102E50001A4807F07BFA0346DAB2029B1A70012384
:102E6000059322E0039B033B154A52F82330049359
:102E7000049B002B07D12FF0D7FA024609231360D9
:102E80004FF0FF3312E0049B1B6808331B68019A64
:102E90000299049898470590059B002B05DA2FF0BE
:102EA000C3FA0246059B5B421360059B184607B0B8
:102EB0005DF804FBA44B0408901E0010404900106C
:102EC000F40E001000B585B00190019B022B01DCCF
:102ED000012322E0019B033B124A52F82330039363
:102EE000039B002B06D12FF09FFA024609231360A3
:102EF000002312E0039B1B681C331B680398984750
:102F00000290029B002B07DA2FF08EFA0246029BFA
:102F10005B421360002300E0029B184605B05DF899
:102F200004FB00BFF40E001000B587B003900291BF
:102F30000192039B022B07DC2FF076FA02461D2339
:102F400013604FF0FF3326E0039B033B144A52F813
:102F500023300593059B002B07D12FF065FA02461D
:102F6000092313604FF0FF3315E0059B1B681033F6
:102F70001B68019A0299059898470490049B002BBE
:102F800008DA2FF051FA0246049B5B4213604FF0BF
:102F9000FF3300E0049B184607B05DF804FB00BF58
:102FA000F40E001000B585B001900091019B022B3A
:102FB00005DC009B4FF400525A6000232AE0019B7D
:102FC000033B164A52F823300393039B002B07D18F
:102FD0002FF02AFA0246092313604FF0FF3319E05D
:102FE000039B1B681C331B68039898470346002B00
:102FF00002D04FF4005201E04FF40042009B5A60AF
:10300000039B1B6828331B68039898470246009B64
:103010001A610023184605B05DF804FBF40E001099
:1030200008B50248FFF7CEFC00BF08BDE04B04081E
:1030300008B5012000F054F810B485B001901B4B86
:103040001B680393194B1A68019B13440293EFF317
:1030500008831C4623461A46029B9A4294BF0123CA
:103060000023DBB2002B05D0114B0C221A604FF06D
:10307000FF3315E00F4B1B68002B0DD00E4B1A6869
:103080000C4B1B681A44029B9A4205D8084B0C2231
:103090001A604FF0FF3303E0044A029B1360039B66
:1030A000184605B05DF8044B704700BF3C000010A7
:1030B000584B0010F00E0010EC0E001000B583B05D
:1030C0000190019B002B01D0FFF74AFBFEE700BFF8
:1030D00084B00390029101920123184604B0704716
:1030E00000B583B001900198FFF7E8FF00BF03B07F
:1030F0005DF804FB00B583B001900021019831F028
:10310000DDFB00BF03B05DF804FB00BF00B587B076
:10311000019000913A238DF80C3003AB013301A9E3
:103120000422184630F06EFF03AB009918462FF0CA
:1031300019FC0590059B002B0BD0019B1B681C33D1
:103140001B68019A104698470346002B01D00123C3
:1031500000E00023002B02D00598FFF7CBFF059B72
:10316000184607B05DF804FB00B583B001900198E4
:103170002FF076FA0346184603B05DF804FB00BF53
:1031800000B583B00190019800F006FB00BF03B0CA
:103190005DF804FB00B583B00190019800F00CFBD2
:1031A00000BF03B05DF804FB00B583B00190019847
:1031B00000F010FB00BF03B05DF804FB00B583B066
:1031C0000190019800F016FB00BF03B05DF804FB0E
:1031D00000B585B00190019B0393039B1B7803F01E
:1031E0000303012B01D100231FE0FFF707FC039B22
:1031F0001B7803F00303012B03D1FFF70BFC002323
:1032000013E0039B1B7803F00303002B05D040F26F
:10321000EA3208490848FFF78DFA039B1B7843F010
:103220000203DAB2039B1A700123184605B05DF859
:1032300004FB00BFEC4B0408144C040800B585B037
:103240000190019B0393039B1B7803F00303022B64
:1032500005D040F2F2320B490B48FFF76BFA039BA3
:103260001B785BB223F003035BB243F001035BB254
:10327000DAB2039B1A70FFF7CDFB00BF05B05DF813
:1032800004FB00BFEC4B04083C4C040800B585B0BF
:103290000190019830F0F8FA0390039B002B02D1C3
:1032A0000348FFF78FFB039B184605B05DF804FB4E
:1032B0007C4C040800B585B00190019830F0E4FA28
:1032C0000390039B002B02D10348FFF77BFB039B7A
:1032D000184605B05DF804FB9C4C040800B583B0AB
:1032E0000190019830F0D8FA00BF03B05DF804FBFC
:1032F00000B583B00190019830F0CEFA00BF03B062
:103300005DF804FB00B583B00190019B4FF47A7225
:1033100002FB03F3184600F005F800BF03B05DF8A8
:1033200004FB00BF00B587B00190FEF7A7FD059034
:103330000598FEF781FD0490019B174A82FB03125A
:103340009211DB17D31A0393039B002B06DDFFF7C3
:103350008BFA0346002B01D0012300E00023002B51
:1033600007D0FEF729FA039B184604F0BFFBFEF7CF
:1033700025FA0598FEF760FD0246049BD21A019BD0
:103380009A4234BF01230023DBB2002B00D0F0E7C8
:1033900000BF07B05DF804FBD34D621000B583B0E9
:1033A0000190019800F080F8019B00221A62002130
:1033B000019800F005F8019B184603B05DF804FB86
:1033C00000B587B001900091019B04331C220021BD
:1033D000184630F015FF02AB00221A605A609A605E
:1033E000DA60009B002B01D0009B00E00E4B0293A3
:1033F000019B043304931C2305930B23039302AB1B
:10340000184602F0EFFA0246019B1A60019B1B6806
:10341000002B04D1312205490548FFF78BF900BF85
:1034200007B05DF804FB00BFF44C0408104D04081D
:103430002C4D040800B585B001900091019B1B68DC
:103440000099184602F00CFB0390039B002B04D15B
:10345000019B1B6A5A1C019B1A62039B184605B00C
:103460005DF804FB00B583B00190019B1B6A5A1EF6
:10347000019B1A62019B1B68184602F025FB03465C
:10348000184603B05DF804FB00B583B00190019BC2
:103490001B68184602F048FB019800F00BF8019BEE
:1034A000184603B05DF804FB82B00190019B1846FA
:1034B00002B0704782B00190019B184602B070477D
:1034C00000B583B001900091019800F05DF84FF6CF
:1034D000FF720099019800F005F8019B184603B0AF
:1034E0005DF804FB00B589B0039002911346ADF876
:1034F0000630039B043310220021184630F080FE72
:1035000004AB00221A605A609A60DA60039B0433AD
:10351000069310230793BDF80630029904AA1846B3
:1035200002F02CFD0246039B1A60039B1B68002BD4
:1035300004D12B2203490448FFF7FCF800BF09B06F
:103540005DF804FB304D0408504D040800B583B00D
:103550000190019B1B68184602F058FD034618466F
:1035600003B05DF804FB00BF00B583B00190019B80
:103570001B68184602F076FD019800F00BF8019BDD
:10358000184603B05DF804FB82B00190019B184619
:1035900002B0704782B00190019B184602B070479C
:1035A00082B0134B0193124BC3F1805303F5803368
:1035B0000093009BB3F5806F28BF4FF480630D4AE2
:1035C00013600C4B1B68009AD31A019A13440A4AE1
:1035D0001360084B1B68009AD31A0093074A009B9C
:1035E0001360074A019B136000BF02B0704700BF21
:1035F000604B0010201000101C100010F00E001086
:10360000EC0E001084B0104B9B6802934FF00053F7
:103610000193002303930CE0039B9B00019A134446
:10362000039A920002990A4412681A60039B0133BC
:103630000393039B7E2BEFDD034B4FF000529A6008
:1036400000BF04B0704700BF00ED00E000BF70474E
:1036500000BF704700B583B0124B134A1A61114B7B
:103660004FF480525A610F4B4822DA600D4B0F4ADB
:103670009A600C4B18229A610A4B0D4A1A60094A4B
:1036800000210C4803F0B4FE0190019B002B02D1F5
:103690000948FFF797F900F08FFE00BF03B05DF80F
:1036A00004FB00BFC0350010703600102436001037
:1036B0005C4D0408CD360008684D040808B5FFF7D6
:1036C000C5FFFDF795F90346184608BD08B51F4B21
:1036D0001F4A1A601D4B0B225A601C4B1C22DA60D9
:1036E0001A4B1C4A9A60194802F07CF902461A4BA0
:1036F0001A601A4B1A4A1A60184B0B225A60174B61
:103700001C22DA60154B174A9A60144802F06AF9D5
:103710000246154B1A60154B154A1A60134B0B22C3
:103720005A60124B1C22DA60104B124A9A600F4802
:1037300002F058F90246104B1A602FF039FF0021B1
:103740000020FFF7BBFF00BF08BD00BF9C35001085
:10375000844D040870350010E83500108C350010D9
:10376000944D0408EC350010E4350010AC35001021
:10377000A44D040808360010BC35001008B5FFF74A
:103780000FFFFFF73FFFFFF763FF00F0ABFDFFF711
:1037900061FF00BF08BD00BF00B583B00190054BBD
:1037A0001B684FF0FF31184602F05AF900BF03B012
:1037B0005DF804FBE435001000B583B00190044BC4
:1037C0001B68184602F080F900BF03B05DF804FBE7
:1037D000E435001000B583B00190054B1B684FF035
:1037E000FF31184602F03CF900BF03B05DF804FB5E
:1037F000BC35001000B583B00190044B1B6818461F
:1038000002F062F900BF03B05DF804FBBC350010A4
:1038100000B583B0019000F009F9FCE700B585B070
:103820000190009103F06CFE0390019B013B042B7F
:1038300030D801A252F823F04D3800086138000852
:103840006F3800087D38000889380008009803F0B8
:103850002DFE0346009A01991248FFF7B3F81FE0C6
:10386000009B039A01991048FFF7ACF818E0009B01
:10387000039A01990D48FFF7A5F811E0039A019901
:103880000B48FFF79FF80BE0039A01990948FFF7EF
:1038900099F805E0039A01990748FFF793F800BFEC
:1038A000FEE700BFB04D0408044E04085C4E040857
:1038B000C44E0408204F0408804F040882B00190D1
:1038C000019B0633052B1BD801A252F823F000BF41
:1038D000FD380008F9380008F5380008F13800080C
:1038E000ED380008E9380008074B0AE0074B08E00C
:1038F000074B06E0074B04E0074B02E0074B00E0F4
:10390000074B184602B07047BC4F0408D44F040858
:103910000850040820500408305004084850040897
:103920006450040800B583B001900198FFF7C6FF0A
:1039300003461A4601990348FFF744F800BF03B055
:103940005DF804FB6C50040800B583B00190009151
:103950000098FFF7B3FF0346009A01990348FFF769
:1039600031F800BF03B05DF804FB00BF84500408C9
:1039700000B583B0019000910098FFF79FFF0346C8
:10398000009A01990348FFF71DF800BF03B05DF8E6
:1039900004FB00BFD050040800B583B00190009133
:1039A000009B13F1110F05D0009A01990348FFF70E
:1039B00009F800E000BF03B05DF804FBE85004081C
:1039C00000B583B001900091009A01990348FEF779
:1039D000F9FF00BF03B05DF804FB00BF1C510408F1
:1039E00000B583B003F08CFD0190019803F044FF13
:1039F00000BF03B05DF804FB00B583B001900198EF
:103A000003F03AFF00BF03B05DF804FB00BF70474E
:103A100008B5FEF747FFFDF7CFFEFFF7F7FFFDF70D
:103A2000CDFEFEF78BFF00BF08BD00BF08B5024BFF
:103A30001B689847FBE700BF40000010EFF30980C8
:103A4000816911F8021CB9BB01B590E80F10E0477D
:103A5000BDE800508CE80300264B93E80600914235
:103A600008BF704741B91EF0100F10D122490868F5
:103A700020F0010008600AE02CE9F00F1EF0100FA2
:103A800008BF2CED108AC1F838C081F822E002F09E
:103A9000A1FF184B93E806001A6092F82210906B71
:103AA00061F0FF0E1EF0100F08BFB0EC108AB0E8F6
:103AB000F00F80F30988704710B5104A13689942D7
:103AC00006D852F821400FC8A047EFF309842060C0
:103AD00010BD10B502F010FCBDE81040EFF3098CEA
:103AE000BAE710B502F0A6FBBDE81040EFF3098C71
:103AF000B2E700005800001034EF00E04452040820
:103B000000B583B00190019B002B01D1002304E09C
:103B10000199132002F0E6FF0023184603B05DF878
:103B200004FB00BF00B587B00190019800F0B2F827
:103B3000EFF305830293029B002B0BD1EFF310836D
:103B40000593059B002B05D1EFF311830493049B90
:103B5000002B07D06FF005010020FFF7F5FE6FF096
:103B6000050307E0019B03930398044B9C4600DF89
:103B7000034600BF184607B05DF804FB013B000890
:103B800084B003900291019200BF04B0704700BF5F
:103B900084B0039002910192009300BF04B070477B
:103BA00084B003900291019200BF04B0704700BF3F
:103BB00084B0039002910192009300BF04B070475B
:103BC00082B00190009100BF02B0704784B00390B2
:103BD0000291019200BF04B0704700BF00BF704760
:103BE00000BF704782B0019000BF02B0704700BFB5
:103BF00000BF704700BF704784B0039002910192EC
:103C000000BF04B0704700BF82B0019000BF02B097
:103C1000704700BF82B00190009100BF02B07047B2
:103C200082B0019000BF02B0704700BF82B0019027
:103C300000BF02B0704700BF82B00190009100BF8A
:103C400002B0704782B00190009100BF02B070478F
:103C500082B0019000BF02B0704700BF82B00190F7
:103C600000BF02B0704700BF82B00190009100BF5A
:103C700002B0704782B00190009100BF02B070475F
:103C800000BF704784B003900291019200BF04B05E
:103C9000704700BF82B0019000BF02B0704700BF04
:103CA00000BF704782B00190009100BF02B0704722
:103CB00082B0019000BF02B0704700BF82B0019097
:103CC00000BF02B0704700BF82B0019000BF02B0D9
:103CD000704700BF82B00190009100BF02B07047F2
:103CE00082B00190009100BF02B0704782B0019095
:103CF00000BF02B0704700BF82B00190009100BFCA
:103D000002B0704782B0019000BF02B0704700BFA0
:103D100082B0019000BF02B0704700BF82B0019036
:103D2000009100BF02B0704782B0019000BF02B0A6
:103D3000704700BF82B0019000BF02B0704700BF63
:103D400084B003900291019200BF04B0704700BF9D
:103D500082B0019000BF02B0704700BF82B00190F6
:103D600000BF02B0704700BF82B0019000BF02B038
:103D7000704700BF82B0019000BF02B0704700BF23
:103D800082B0019000BF02B0704700BF82B00190C6
:103D900000BF02B0704700BF82B0019000BF02B008
:103DA000704700BF82B0019000BF02B0704700BFF3
:103DB00084B003900291019200BF04B0704700BF2D
:103DC00082B0019000BF02B0704700BF84B0039082
:103DD0000291009313468DF8073000BF04B070477E
:103DE00084B003900291019200BF04B0704700BFFD
:103DF00082B0019000BF02B0704700BF82B0019056
:103E0000009100BF02B0704782B00190009100BFE6
:103E100002B0704782B00190009100BF02B07047BD
:103E200084B0039002910192009300BF04B07047E8
:103E300084B003900291019200BF04B0704700BFAC
:103E400082B0019000BF02B0704700BF82B0019005
:103E5000009100BF02B0704782B00190009100BF96
:103E600002B07047034BDB6803F4E0631B0A18469B
:103E7000704700BF00ED00E000B583B0124BFF2299
:103E800083F82220104B93F82230DBB263F0FF035B
:103E9000DB43B3FA83F3C3F120030193FFF7E2FF9F
:103EA0000090009A019B9A4202D3009B0133019338
:103EB000054AFE21019B01FA03F3DBB2D37700BF71
:103EC00003B05DF804FB00BF00ED00E008B5444B13
:103ED0001B7A012B03D1FFF783FE00235BE1404BEC
:103EE0001B7A002B06D04FF0FF30FFF71BFD4FF081
:103EF000FF3350E19C2200213A4830F081F93A4BDF
:103F00005B6D472B06D86FF00A00FFF70BFD4FF0F3
:103F1000FF3340E1344BDB68002B03D0324B1B8A6C
:103F2000002B06D14FF0FF30FFF7FCFC4FF0FF33C2
:103F300031E12D4BDB682A4AD3652B4B1A8A284B7B
:103F4000A3F85420284B9B68254A1364264BDA6A51
:103F5000254B1B6B1946104600F07AFA0346002BDE
:103F600004D0214BDB6A1E4AC2F880301E4B5A69CE
:103F70001D4B9B691946104600F06AFA0346002B58
:103F800004D0194B5B69164A536704E0144BD3F80D
:103F90008030134A5367144BDA69134B1B6A194676
:103FA000104600F055FA0346002B04D00E4BDB6997
:103FB0000B4A936704E00A4BD3F88030084A9367B2
:103FC000094B5A6A084B9B6A1946104600F040FAA2
:103FD0000346002B0AD0044B5B6A014AD3670AE010
:103FE000440000104C000010A45104086B4BD3F89F
:103FF00080306A4AD3676A4B5B6B002B14D0684BE6
:10400000586B674B5B6B1968654B5B6B9A68644BCD
:104010005B6BDB6800F07CFB0346002B04D0604B3D
:104020005B6B5E4AC2F884305D4B9B6B002B14D0F7
:104030005B4B986B5A4B9B6B1968594B9B6B9A68FF
:10404000574B9B6BDB6800F063FB0346002B04D0EF
:10405000534B9B6B514AC2F88830514BDB6B002BA2
:1040600014D04F4BD86B4E4BDB6B19684C4BDB6B52
:104070009A684B4BDB6BDB6800F04AFB0346002B76
:1040800004D0474BDB6B454AC2F88C30444B1B6C69
:10409000002B14D0424B186C414B1B6C1968404BE1
:1040A0001B6C9A683E4B1B6CDB6800F031FB0346CF
:1040B000002B04D03A4B1B6C384AC2F89030384B76
:1040C0005B6C002B14D0364B586C354B5B6C19680D
:1040D000334B5B6C9A68324B5B6CDB6800F018FB0F
:1040E0000346002B04D02E4B5B6C2C4AC2F8943054
:1040F0002B4B9B6C002B14D0294B986C284B9B6C42
:104100001968274B9B6C9A68254B9B6CDB6800F009
:10411000FFFA0346002B04D0214B9B6C1F4AC2F8C8
:1041200098301F4BDB6C002B14D01D4BD86C1C4BF4
:10413000DB6C19681A4BDB6C9A68194BDB6CDB681B
:1041400000F0E6FA0346002B04D0154BDB6C134A53
:10415000C2F89C30124B1B6D002B14D0104B186D05
:104160000F4B1B6D19680E4B1B6D9A680C4B1B6D2A
:10417000DB6800F0CDFA0346002B04D0084B1B6D22
:10418000064AC2F8A030FFF777FE044B01221A72EC
:10419000FFF726FD0023184608BD00BF44000010AD
:1041A000A451040808B5044B1B7A1846FFF71AFD02
:1041B000014B1B7A184608BD4400001000B585B0BD
:1041C000424B1B7A012B06D06FF00600FFF7AAFBCB
:1041D0004FF0FF3376E03D4B9B6A002B14D13C4BF4
:1041E0009A6D002300213B4802F004FD0246374B44
:1041F0009A62364B9B6A002B06D14FF0FF30FFF7D7
:1042000091FB4FF0FF335DE0314B5B6E002B18D01C
:104210002E4B9B6C002B14D12D4BDA6D002300210B
:104220002D4802F0E7FC0246284B9A64274B9B6C12
:10423000002B06D14FF0FF30FFF774FB4FF0FF3338
:1042400040E0234B5B682549184603F0BBFA034660
:10425000002B02D04FF0FF3334E003F009FB02469D
:104260001A4B1A6103F0E2FA0346002B02D04FF01A
:10427000FF3327E01A4802F089F90390039B002BD3
:1042800006D14FF0FF30FFF74DFB4FF0FF3319E041
:10429000039802F08BFB0E4B1B6803F00103002B0D
:1042A00005D002230193019B83F3148804E00323C8
:1042B0000293029B83F31488044B02221A72FFF7C5
:1042C00099FC0023184605B05DF804FB440000107B
:1042D000A45104081138000855770008E33A000893
:1042E0006000001000B585B0FFF778FCEFF30583A0
:1042F0000193019B002B0BD1EFF310830393039BDE
:10430000002B05D1EFF311830293029B002B06D003
:104310006FF00500FFF706FB6FF0050314E00C4B90
:104320009C46EFF3148313F0020F0AD113F0040F2D
:10433000EFF308830CBF203B683B23F0070383F3B4
:10434000098800DF034600BF184605B05DF804FB8E
:10435000CD3E000800B585B0EFF305830093009BC8
:10436000002B0BD1EFF310830393039B002B05D19C
:10437000EFF311830293029B002B06D04FF0FF3026
:10438000FFF730FC4FF0FF3310E0EFF3148301939D
:10439000019B03F00103002B03D1FFF703FF03464A
:1043A00004E0044B9C4600DF034600BF184605B0FE
:1043B0005DF804FBA541000800B585B0FFF718FCC7
:1043C000EFF305830193019B002B0BD1EFF31083D7
:1043D0000393039B002B05D1EFF311830293029B00
:1043E000002B06D06FF00500FFF79CFA6FF0050375
:1043F00026E0FFF7AFFF0346022B0CD0124B1B68E1
:10440000002B08D0104B1B685B68002B03D00E4BB1
:104410001B685B6898470D4B9C46EFF3148313F0C1
:10442000020F0AD113F0040FEFF308830CBF203BF7
:10443000683B23F0070383F3098800DF034600BFCE
:10444000184605B05DF804FB70460010BD41000839
:1044500000B585B001900091019B002B0CD0019B11
:1044600003F00703002B07D1009B03F00703002B89
:1044700002D1009B172B06D8002200990198FFF764
:104480007FFB00231EE0019B0393039B009A1A60AD
:10449000039B10225A60019B08330293019A009BF0
:1044A0001344083B1A46029B1A60029B1B680022B9
:1044B0001A60029B00225A60012200990198FFF7BE
:1044C0005FFB0123184605B05DF804FB00B589B019
:1044D000039002910192039B002B07D0029B002BBB
:1044E00004D0019B23F00303002B07D00023019A83
:1044F00002990398FFF74CFB00235BE0029B083313
:104500000293029B073323F007030293039B0833B4
:104510000793079B1B681A46079BD31A0593079BB3
:104520005B6823F00303059AD31A0593059A029B4F
:104530009A420ED2079B1B680793079B1B68002BB0
:10454000E7D10023019A02990398FFF721FB00238A
:1045500030E000BF039B5A68029B1A44039B5A60D9
:10456000079B5B68002B08D1029A019B1A43079BAB
:104570005A60079B0833069315E0079B5B6823F09E
:104580000302079B13440493079B1A68049B1A6059
:10459000029A019B1A43049B5A60079B049A1A6073
:1045A000049B08330693069B019A02990398FFF730
:1045B000EFFA069B184609B05DF804FB00B587B01A
:1045C00001900091019B002B02D0009B002B06D193
:1045D000002200990198FFF7E3FA002335E0009BE1
:1045E000083B039300230493019B083305930EE0DB
:1045F000059B0493059B1B680593059B002B06D127
:10460000002200990198FFF7CBFA00231DE0059ADC
:10461000039B9A42ECD1019B5A68059B5B6823F08F
:104620000303D21A019B5A60049B002B03D1059B04
:1046300000225A6003E0059B1A68049B1A6001225D
:1046400000990198FFF7ACFA0123184607B05DF80E
:1046500004FB00BF10B483B001900091019B009A4D
:1046600053E8001F8A4202D8BFF32F8F04E0481C92
:1046700043E8000404B1F3E70C462346184603B0B0
:104680005DF8044B704700BF10B483B00190019BEC
:1046900053E8002F12B9BFF32F8F04E0511E43E8F7
:1046A000001000B1F4E714462346184603B05DF845
:1046B000044B704710B483B00190019B53E8002F66
:1046C00012B9BFF32F8F04E0116843E8001000B166
:1046D000F4E714462346184603B05DF8044B7047D0
:1046E00010B483B001900091019B009A1968116089
:1046F000BFF35F8F53E8001F10688842F6D143E88C
:10470000002404B1F2E700BF03B05DF8044B70472A
:1047100000B587B00390029101920093039B002B98
:1047200008D0029B002B05D0019B002B02D0009BE0
:10473000002B01D1002330E0039B029A1A60039BF7
:1047400000225A60039B019A9A60039B009ADA60E8
:10475000039B009A5A61029B019A02FB03F3009AA1
:104760001A44039B1A61009B019A02990398FFF770
:104770001FFA08E0009A019B13440593009B059AD9
:104780001A60059B0093029B013B0293029B002B46
:10479000F0D1009B00221A600123184607B05DF893
:1047A00004FB00BF00B585B00190019B002B05D133
:1047B00000210020FFF704FA00231AE0019B1A1DD4
:1047C000019B1B6819461046FFF744FF0246019BF8
:1047D0001B689A4206D2019B14331846FFF76AFF02
:1047E000039001E00023039303990198FFF7E8F990
:1047F000039B184605B05DF804FB00BF00B585B00B
:1048000001900091019B002B09D0019BDA68009B6D
:104810009A4204D8019B1A69009B9A4208D86FF00B
:10482000030200990198FFF7D1F96FF0030319E033
:10483000019B04331846FFF727FF0346002B08D0DF
:10484000019B143300991846FFF74AFF0023039396
:1048500002E06FF002030393039A00990198FFF7B7
:10486000B5F9039B184605B05DF804FB10B483B09E
:1048700001900B468DF80330019B9DF80320D3E88F
:104880004F1FC3E8402F00B1F9E7CCB223461846CA
:1048900003B05DF8044B704710B483B00190019BE6
:1048A00053E8002F511C43E8001000B1F8E714460C
:1048B0002346184603B05DF8044B704710B483B02C
:1048C0000190019B53E8002F12B9BFF32F8F04E032
:1048D000511E43E8001000B1F4E714462346184681
:1048E00003B05DF8044B7047014B5B691846704795
:1048F0004400001000B585B001900091019B1B6B36
:10490000002B2ED0019B1B6B03930023029304E02A
:10491000039B0293039B5B680393039B002B05D0CF
:10492000039BDA78009BDB789A42F1D3009B039AD1
:104930005A60009B029A9A60039B002B03D0039B52
:10494000009A9A6002E0019B009ADA62029B002BB7
:1049500003D0029B009A5A600FE0019B009A1A63F1
:104960000BE0009B00225A60009B00229A60019B92
:10497000009ADA62019B009A1A63019B2833184659
:10498000FFF78AFF00BF05B05DF804FB00B587B0F4
:104990000190019B28331846FFF790FF0490049B79
:1049A000002B01D1002319E0019BDB6A05930FE086
:1049B000059B023301211846FFF758FF03468DF887
:1049C0000F309DF80F30002B06D0059B9B68059398
:1049D000059B002BECD100E000BF059B184607B0FB
:1049E0005DF804FB82B001900091009B5B68002B96
:1049F00005D0009B5B68009A92689A6003E0009B78
:104A00009A68019BDA62009B9B68002B05D0009B93
:104A10009B68009A52685A6003E0009B5A68019BA9
:104A20001A6300BF02B0704700B587B00190019BC8
:104A30005B78002B00F0BC80019B9B78002B60D042
:104A4000019B0C330593059B1B680493049B5B78C7
:104A5000002B00F0AF8001990498FFF7C3FF019B82
:104A600000225A70049B0C3301991846FFF7C6FECA
:104A7000049B9B68002B00F0A080049B9B685B78E4
:104A8000932B40F09A80049B0C331846FFF78AFE64
:104A90000190019B002B00F09080049801F076FDBE
:104AA000039000220021039801F0F8FF039801F021
:104AB00039FF0290019B03F10C00029B08331B6835
:104AC0001946049B5B6A1A462FF09CFA019B072249
:104AD0001A70019B01225A70019B00229A70029B5E
:104AE0000C331B68DAB2019BDA7001990498FFF766
:104AF00001FF029B08331B6819460498FFF784F9ED
:104B00005BE0019B9B680493049B5B78002B53D074
:104B1000049B9B68002B40D0049B9B685B78832B95
:104B20003BD1019B5B6819460498FFF76DF9049827
:104B300001F02CFD039000220021039801F0AEFF4C
:104B4000039801F0EFFE0290029B08331B681846A1
:104B5000019B03F10C01049B5B6A1A462FF052FA89
:104B6000029B0C331B68002B06D0029B0C331B6886
:104B70001A46019BDB781370029B08331B681946A9
:104B80000498FFF763F9019B00225A70049B0C33D1
:104B900001991846FFF732FE0FE0019B5B6819464A
:104BA0000498FFF731F901990498FFF7A3FE04E098
:104BB00000BF02E000BF00E000BF07B05DF804FBEB
:104BC00000B58DB0039002910192039B002B02D09F
:104BD000029B002B06D16FF003010020FEF7F0FED0
:104BE0000023F9E0029B033323F003030C33079304
:104BF000039BB3FA83F2079BB3FA83F313441F2B8F
:104C000006DC6FF003010020FEF7DAFE0023E3E08C
:104C1000039B079A02FB03F30693019B002B46D0EC
:104C2000019B1B680893019B9B680B93019B1B696D
:104C30000A93019B5B6905930B9B002B0FD00B9B89
:104C400003F00303002B03D1019BDB68332B11D846
:104C50006FF008010020FEF7B3FE0023BCE0019BCB
:104C6000DB68002B06D06FF008010020FEF7A8FEDD
:104C70000023B1E00A9B002B0FD00A9B03F0030333
:104C8000002B03D1059A069B9A4216D26FF00901B8
:104C90000020FEF795FE00239EE0059B002B0CD024
:104CA0006FF009010020FEF78BFE002394E0002343
:104CB000089300230B9300230A930B9B002B23D113
:104CC000474BD3F8A030002B07D0454BD3F8A0308A
:104CD0001846FFF767FD0B9008E0414BD3F8803092
:104CE000012234211846FFF7F1FB0B900B9B002BA0
:104CF00006D16FF004010020FEF762FE00236BE096
:104D000001238DF8273002E000238DF827300A9B1D
:104D1000002B36D1324BDB6F002206991846FFF785
:104D2000D5FB0A900A9B002B20D16FF004010020D4
:104D3000FEF746FE9DF8273003F00103002B13D049
:104D4000274BD3F8A030002B07D0254BD3F8A03049
:104D50000B991846FFF752FD06E0214BD3F880303F
:104D60000B991846FFF72AFC002335E0069A00212C
:104D70000A982FF045FA9DF8273043F002038DF88A
:104D800027300B9B08221A700B9B01225A700B9B39
:104D90009DF827209A700B9B089A5A600B9B002263
:104DA0009A600B9B029A5A620B9B00229A620B9BA1
:104DB0000022DA620B9B00221A630B9B03F10C00AA
:104DC0000A9B079A0399FFF7A3FC054B054A1A674C
:104DD0000B98FEF7F5FF0B9B18460DB05DF804FB32
:104DE00044000010294A000810B588B003900291D1
:104DF000009313468DF80730039B0793079B002B06
:104E000006D0079B1B78082B02D1029B002B07D1F1
:104E10006FF003010798FEF7D3FD6FF0030397E0EF
:104E2000079B5B78002B07D16FF002010798FEF714
:104E3000C7FD6FF002038BE0079B9B68002B34D00B
:104E4000079B9B685B78832B2FD102990798FEF70D
:104E5000DBFF079801F09AFB0690012200210698DB
:104E600001F01CFE069801F05DFD0590059B0833DE
:104E70001B681846079B5B6A1A4602992FF0C2F816
:104E8000059B0C331B68002B06D0059B0C331B685D
:104E90001A469DF807301370059B08331B681946A6
:104EA0000798FEF7D3FF002352E0079B0C33184608
:104EB000FFF778FC0490049B002B1FD0049B03F1A8
:104EC0000C00079B5B6A1A4602992FF09BF8049B23
:104ED00007221A70049B01225A70049B00229A70C8
:104EE000049B9DF80720DA7004990798FFF702FDEC
:104EF00002990798FEF788FF002329E0009B002B0A
:104F000020D0009A02990798FEF76AFFFFF7ECFCA1
:104F100003461946079801F007FB0099932001F01A
:104F2000E1FDEFF309831C4623460593059B0833F7
:104F3000029A1A60059B0C339DF807201A606FF0E7
:104F4000010305E002990798FEF764FF6FF0020382
:104F5000184608B010BD00BF10B588B0039002918C
:104F600001920093039B0793079B002B06D0079B9E
:104F70001B78082B02D1029B002B07D16FF0030195
:104F80000798FEF71DFD6FF00303A4E0079B5B7815
:104F9000002B07D16FF002010798FEF711FD6FF0AB
:104FA000020398E00798FFF7F1FC0690069B002BA0
:104FB00025D006990798FFF715FD069B03F10C0114
:104FC000079B5B6A1A4602982FF01CF8019B002B86
:104FD00003D0069BDA78019B1A7002990798FEF7B6
:104FE00035FF069B00225A70079B0C330699184622
:104FF000FFF704FC079B9B68002B6BD029E0009B0C
:10500000002B1FD0009A02990798FEF711FFFFF7B7
:105010006BFC03461946079801F086FA0099832035
:1050200001F060FDEFF309831C4623460593059BC1
:105030000833029A1A60059B0C33019A1A606FF0CC
:10504000010348E002990798FEF706FF6FF002039C
:1050500041E0079B9B685B78932B3BD1079B0C330C
:105060001846FFF79FFB0690069B002B32D007984F
:1050700001F08CFA049001220021049801F00EFD49
:10508000049801F04FFC0590069B03F10C00059B72
:1050900008331B681946079B5B6A1A462EF0B2FF5D
:1050A000069B07221A70069B01225A70069B00225B
:1050B0009A70059B0C331B68DAB2069BDA7006996E
:1050C0000798FFF717FC059B08331B6819460798DC
:1050D000FEF79AFE0023184608B010BD00B589B04F
:1050E00003900291009313468DF80730039B0793BA
:1050F000079B002B09D0079B1B78082B05D1029B2F
:10510000002B02D0009B002B07D06FF00301079803
